{
	"src/sample/SimpleEscrow.sol": {
		"SimpleEscrowLegacy": {
			"abi": [
				{
					"inputs": [
						{
							"internalType": "uint256",
							"name": "id",
							"type": "uint256"
						}
					],
					"name": "getEscrowInfo",
					"outputs": [
						{
							"components": [
								{
									"internalType": "uint256",
									"name": "id",
									"type": "uint256"
								},
								{
									"internalType": "address",
									"name": "depositor",
									"type": "address"
								},
								{
									"internalType": "address",
									"name": "beneficiary",
									"type": "address"
								},
								{
									"internalType": "uint256",
									"name": "amount",
									"type": "uint256"
								},
								{
									"internalType": "uint256",
									"name": "deadline",
									"type": "uint256"
								},
								{
									"internalType": "enum SimpleEscrowLegacy.EscrowStatus",
									"name": "status",
									"type": "uint8"
								}
							],
							"internalType": "struct SimpleEscrowLegacy.EscrowInfo",
							"name": "info",
							"type": "tuple"
						}
					],
					"stateMutability": "view",
					"type": "function"
				},
				{
					"inputs": [
						{
							"components": [
								{
									"internalType": "uint256",
									"name": "id",
									"type": "uint256"
								},
								{
									"internalType": "address",
									"name": "depositor",
									"type": "address"
								},
								{
									"internalType": "address",
									"name": "beneficiary",
									"type": "address"
								},
								{
									"internalType": "uint256",
									"name": "amount",
									"type": "uint256"
								},
								{
									"internalType": "uint256",
									"name": "deadline",
									"type": "uint256"
								},
								{
									"internalType": "enum SimpleEscrowLegacy.EscrowStatus",
									"name": "status",
									"type": "uint8"
								}
							],
							"internalType": "struct SimpleEscrowLegacy.EscrowInfo",
							"name": "info",
							"type": "tuple"
						}
					],
					"name": "saveEscrowInfo",
					"outputs": [],
					"stateMutability": "nonpayable",
					"type": "function"
				}
			],
			"devdoc": {
				"kind": "dev",
				"methods": {},
				"version": 1
			},
			"evm": {
				"assembly": "    /* \"src/sample/SimpleEscrow.sol\":733:1293  contract SimpleEscrowLegacy {... */\n  mstore(0x40, 0x80)\n  callvalue\n  dup1\n  iszero\n  tag_1\n  jumpi\n  revert(0x00, 0x00)\ntag_1:\n  pop\n  dataSize(sub_0)\n  dup1\n  dataOffset(sub_0)\n  0x00\n  codecopy\n  0x00\n  return\nstop\n\nsub_0: assembly {\n        /* \"src/sample/SimpleEscrow.sol\":733:1293  contract SimpleEscrowLegacy {... */\n      mstore(0x40, 0x80)\n      callvalue\n      dup1\n      iszero\n      tag_1\n      jumpi\n      revert(0x00, 0x00)\n    tag_1:\n      pop\n      jumpi(tag_2, lt(calldatasize, 0x04))\n      shr(0xe0, calldataload(0x00))\n      dup1\n      0x775f75cb\n      eq\n      tag_3\n      jumpi\n      dup1\n      0x8646405e\n      eq\n      tag_4\n      jumpi\n    tag_2:\n      revert(0x00, 0x00)\n        /* \"src/sample/SimpleEscrow.sol\":1196:1291  function saveEscrowInfo(EscrowInfo memory info) external {... */\n    tag_3:\n      tag_5\n      0x04\n      dup1\n      calldatasize\n      sub\n      dup2\n      add\n      swap1\n      tag_6\n      swap2\n      swap1\n      tag_7\n      jump\t// in\n    tag_6:\n      tag_8\n      jump\t// in\n    tag_5:\n      stop\n        /* \"src/sample/SimpleEscrow.sol\":1076:1190  function getEscrowInfo(uint256 id) external view returns(EscrowInfo memory info) {... */\n    tag_4:\n      tag_9\n      0x04\n      dup1\n      calldatasize\n      sub\n      dup2\n      add\n      swap1\n      tag_10\n      swap2\n      swap1\n      tag_11\n      jump\t// in\n    tag_10:\n      tag_12\n      jump\t// in\n    tag_9:\n      mload(0x40)\n      tag_13\n      swap2\n      swap1\n      tag_14\n      jump\t// in\n    tag_13:\n      mload(0x40)\n      dup1\n      swap2\n      sub\n      swap1\n      return\n        /* \"src/sample/SimpleEscrow.sol\":1196:1291  function saveEscrowInfo(EscrowInfo memory info) external {... */\n    tag_8:\n        /* \"src/sample/SimpleEscrow.sol\":1280:1284  info */\n      dup1\n        /* \"src/sample/SimpleEscrow.sol\":1263:1268  _info */\n      0x00\n        /* \"src/sample/SimpleEscrow.sol\":1263:1277  _info[info.id] */\n      0x00\n        /* \"src/sample/SimpleEscrow.sol\":1269:1273  info */\n      dup4\n        /* \"src/sample/SimpleEscrow.sol\":1269:1276  info.id */\n      0x00\n      add\n      mload\n        /* \"src/sample/SimpleEscrow.sol\":1263:1277  _info[info.id] */\n      dup2\n      mstore\n      0x20\n      add\n      swap1\n      dup2\n      mstore\n      0x20\n      add\n      0x00\n      keccak256\n        /* \"src/sample/SimpleEscrow.sol\":1263:1284  _info[info.id] = info */\n      0x00\n      dup3\n      add\n      mload\n      dup2\n      0x00\n      add\n      sstore\n      0x20\n      dup3\n      add\n      mload\n      dup2\n      0x01\n      add\n      exp(0x0100, 0x00)\n      dup2\n      sload\n      dup2\n      0xffffffffffffffffffffffffffffffffffffffff\n      mul\n      not\n      and\n      swap1\n      dup4\n      0xffffffffffffffffffffffffffffffffffffffff\n      and\n      mul\n      or\n      swap1\n      sstore\n      pop\n      0x40\n      dup3\n      add\n      mload\n      dup2\n      0x02\n      add\n      exp(0x0100, 0x00)\n      dup2\n      sload\n      dup2\n      0xffffffffffffffffffffffffffffffffffffffff\n      mul\n      not\n      and\n      swap1\n      dup4\n      0xffffffffffffffffffffffffffffffffffffffff\n      and\n      mul\n      or\n      swap1\n      sstore\n      pop\n      0x60\n      dup3\n      add\n      mload\n      dup2\n      0x03\n      add\n      sstore\n      0x80\n      dup3\n      add\n      mload\n      dup2\n      0x04\n      add\n      sstore\n      0xa0\n      dup3\n      add\n      mload\n      dup2\n      0x05\n      add\n      exp(0x0100, 0x00)\n      dup2\n      sload\n      dup2\n      0xff\n      mul\n      not\n      and\n      swap1\n      dup4\n      0x03\n      dup2\n      gt\n      iszero\n      tag_16\n      jumpi\n      tag_17\n      tag_18\n      jump\t// in\n    tag_17:\n    tag_16:\n      mul\n      or\n      swap1\n      sstore\n      pop\n      swap1\n      pop\n      pop\n        /* \"src/sample/SimpleEscrow.sol\":1196:1291  function saveEscrowInfo(EscrowInfo memory info) external {... */\n      pop\n      jump\t// out\n        /* \"src/sample/SimpleEscrow.sol\":1076:1190  function getEscrowInfo(uint256 id) external view returns(EscrowInfo memory info) {... */\n    tag_12:\n        /* \"src/sample/SimpleEscrow.sol\":1133:1155  EscrowInfo memory info */\n      tag_19\n      tag_20\n      jump\t// in\n    tag_19:\n        /* \"src/sample/SimpleEscrow.sol\":1174:1179  _info */\n      0x00\n        /* \"src/sample/SimpleEscrow.sol\":1174:1183  _info[id] */\n      0x00\n        /* \"src/sample/SimpleEscrow.sol\":1180:1182  id */\n      dup4\n        /* \"src/sample/SimpleEscrow.sol\":1174:1183  _info[id] */\n      dup2\n      mstore\n      0x20\n      add\n      swap1\n      dup2\n      mstore\n      0x20\n      add\n      0x00\n      keccak256\n        /* \"src/sample/SimpleEscrow.sol\":1167:1183  info = _info[id] */\n      mload(0x40)\n      dup1\n      0xc0\n      add\n      0x40\n      mstore\n      swap1\n      dup2\n      0x00\n      dup3\n      add\n      sload\n      dup2\n      mstore\n      0x20\n      add\n      0x01\n      dup3\n      add\n      0x00\n      swap1\n      sload\n      swap1\n      0x0100\n      exp\n      swap1\n      div\n      0xffffffffffffffffffffffffffffffffffffffff\n      and\n      0xffffffffffffffffffffffffffffffffffffffff\n      and\n      0xffffffffffffffffffffffffffffffffffffffff\n      and\n      dup2\n      mstore\n      0x20\n      add\n      0x02\n      dup3\n      add\n      0x00\n      swap1\n      sload\n      swap1\n      0x0100\n      exp\n      swap1\n      div\n      0xffffffffffffffffffffffffffffffffffffffff\n      and\n      0xffffffffffffffffffffffffffffffffffffffff\n      and\n      0xffffffffffffffffffffffffffffffffffffffff\n      and\n      dup2\n      mstore\n      0x20\n      add\n      0x03\n      dup3\n      add\n      sload\n      dup2\n      mstore\n      0x20\n      add\n      0x04\n      dup3\n      add\n      sload\n      dup2\n      mstore\n      0x20\n      add\n      0x05\n      dup3\n      add\n      0x00\n      swap1\n      sload\n      swap1\n      0x0100\n      exp\n      swap1\n      div\n      0xff\n      and\n      0x03\n      dup2\n      gt\n      iszero\n      tag_22\n      jumpi\n      tag_23\n      tag_18\n      jump\t// in\n    tag_23:\n    tag_22:\n      0x03\n      dup2\n      gt\n      iszero\n      tag_24\n      jumpi\n      tag_25\n      tag_18\n      jump\t// in\n    tag_25:\n    tag_24:\n      dup2\n      mstore\n      pop\n      pop\n      swap1\n      pop\n        /* \"src/sample/SimpleEscrow.sol\":1076:1190  function getEscrowInfo(uint256 id) external view returns(EscrowInfo memory info) {... */\n      swap2\n      swap1\n      pop\n      jump\t// out\n    tag_20:\n      mload(0x40)\n      dup1\n      0xc0\n      add\n      0x40\n      mstore\n      dup1\n      0x00\n      dup2\n      mstore\n      0x20\n      add\n      and(0xffffffffffffffffffffffffffffffffffffffff, 0x00)\n      dup2\n      mstore\n      0x20\n      add\n      and(0xffffffffffffffffffffffffffffffffffffffff, 0x00)\n      dup2\n      mstore\n      0x20\n      add\n      0x00\n      dup2\n      mstore\n      0x20\n      add\n      0x00\n      dup2\n      mstore\n      0x20\n      add\n      0x00\n      0x03\n      dup2\n      gt\n      iszero\n      tag_26\n      jumpi\n      tag_27\n      tag_18\n      jump\t// in\n    tag_27:\n    tag_26:\n      dup2\n      mstore\n      pop\n      swap1\n      jump\t// out\n        /* \"#utility.yul\":7:82   */\n    tag_28:\n        /* \"#utility.yul\":40:46   */\n      0x00\n        /* \"#utility.yul\":73:75   */\n      0x40\n        /* \"#utility.yul\":67:76   */\n      mload\n        /* \"#utility.yul\":57:76   */\n      swap1\n      pop\n        /* \"#utility.yul\":7:82   */\n      swap1\n      jump\t// out\n        /* \"#utility.yul\":88:205   */\n    tag_29:\n        /* \"#utility.yul\":197:198   */\n      0x00\n        /* \"#utility.yul\":194:195   */\n      0x00\n        /* \"#utility.yul\":187:199   */\n      revert\n        /* \"#utility.yul\":334:451   */\n    tag_31:\n        /* \"#utility.yul\":443:444   */\n      0x00\n        /* \"#utility.yul\":440:441   */\n      0x00\n        /* \"#utility.yul\":433:445   */\n      revert\n        /* \"#utility.yul\":457:559   */\n    tag_32:\n        /* \"#utility.yul\":498:504   */\n      0x00\n        /* \"#utility.yul\":549:551   */\n      0x1f\n        /* \"#utility.yul\":545:552   */\n      not\n        /* \"#utility.yul\":540:542   */\n      0x1f\n        /* \"#utility.yul\":533:538   */\n      dup4\n        /* \"#utility.yul\":529:543   */\n      add\n        /* \"#utility.yul\":525:553   */\n      and\n        /* \"#utility.yul\":515:553   */\n      swap1\n      pop\n        /* \"#utility.yul\":457:559   */\n      swap2\n      swap1\n      pop\n      jump\t// out\n        /* \"#utility.yul\":565:745   */\n    tag_33:\n        /* \"#utility.yul\":613:690   */\n      0x4e487b7100000000000000000000000000000000000000000000000000000000\n        /* \"#utility.yul\":610:611   */\n      0x00\n        /* \"#utility.yul\":603:691   */\n      mstore\n        /* \"#utility.yul\":710:714   */\n      0x41\n        /* \"#utility.yul\":707:708   */\n      0x04\n        /* \"#utility.yul\":700:715   */\n      mstore\n        /* \"#utility.yul\":734:738   */\n      0x24\n        /* \"#utility.yul\":731:732   */\n      0x00\n        /* \"#utility.yul\":724:739   */\n      revert\n        /* \"#utility.yul\":751:1032   */\n    tag_34:\n        /* \"#utility.yul\":834:861   */\n      tag_62\n        /* \"#utility.yul\":856:860   */\n      dup3\n        /* \"#utility.yul\":834:861   */\n      tag_32\n      jump\t// in\n    tag_62:\n        /* \"#utility.yul\":826:832   */\n      dup2\n        /* \"#utility.yul\":822:862   */\n      add\n        /* \"#utility.yul\":964:970   */\n      dup2\n        /* \"#utility.yul\":952:962   */\n      dup2\n        /* \"#utility.yul\":949:971   */\n      lt\n        /* \"#utility.yul\":928:946   */\n      0xffffffffffffffff\n        /* \"#utility.yul\":916:926   */\n      dup3\n        /* \"#utility.yul\":913:947   */\n      gt\n        /* \"#utility.yul\":910:972   */\n      or\n        /* \"#utility.yul\":907:995   */\n      iszero\n      tag_63\n      jumpi\n        /* \"#utility.yul\":975:993   */\n      tag_64\n      tag_33\n      jump\t// in\n    tag_64:\n        /* \"#utility.yul\":907:995   */\n    tag_63:\n        /* \"#utility.yul\":1015:1025   */\n      dup1\n        /* \"#utility.yul\":1011:1013   */\n      0x40\n        /* \"#utility.yul\":1004:1026   */\n      mstore\n        /* \"#utility.yul\":794:1032   */\n      pop\n        /* \"#utility.yul\":751:1032   */\n      pop\n      pop\n      jump\t// out\n        /* \"#utility.yul\":1038:1167   */\n    tag_35:\n        /* \"#utility.yul\":1072:1078   */\n      0x00\n        /* \"#utility.yul\":1099:1119   */\n      tag_66\n      tag_28\n      jump\t// in\n    tag_66:\n        /* \"#utility.yul\":1089:1119   */\n      swap1\n      pop\n        /* \"#utility.yul\":1128:1161   */\n      tag_67\n        /* \"#utility.yul\":1156:1160   */\n      dup3\n        /* \"#utility.yul\":1148:1154   */\n      dup3\n        /* \"#utility.yul\":1128:1161   */\n      tag_34\n      jump\t// in\n    tag_67:\n        /* \"#utility.yul\":1038:1167   */\n      swap2\n      swap1\n      pop\n      jump\t// out\n        /* \"#utility.yul\":1296:1373   */\n    tag_37:\n        /* \"#utility.yul\":1333:1340   */\n      0x00\n        /* \"#utility.yul\":1362:1367   */\n      dup2\n        /* \"#utility.yul\":1351:1367   */\n      swap1\n      pop\n        /* \"#utility.yul\":1296:1373   */\n      swap2\n      swap1\n      pop\n      jump\t// out\n        /* \"#utility.yul\":1379:1501   */\n    tag_38:\n        /* \"#utility.yul\":1452:1476   */\n      tag_71\n        /* \"#utility.yul\":1470:1475   */\n      dup2\n        /* \"#utility.yul\":1452:1476   */\n      tag_37\n      jump\t// in\n    tag_71:\n        /* \"#utility.yul\":1445:1450   */\n      dup2\n        /* \"#utility.yul\":1442:1477   */\n      eq\n        /* \"#utility.yul\":1432:1495   */\n      tag_72\n      jumpi\n        /* \"#utility.yul\":1491:1492   */\n      0x00\n        /* \"#utility.yul\":1488:1489   */\n      0x00\n        /* \"#utility.yul\":1481:1493   */\n      revert\n        /* \"#utility.yul\":1432:1495   */\n    tag_72:\n        /* \"#utility.yul\":1379:1501   */\n      pop\n      jump\t// out\n        /* \"#utility.yul\":1507:1646   */\n    tag_39:\n        /* \"#utility.yul\":1553:1558   */\n      0x00\n        /* \"#utility.yul\":1591:1597   */\n      dup2\n        /* \"#utility.yul\":1578:1598   */\n      calldataload\n        /* \"#utility.yul\":1569:1598   */\n      swap1\n      pop\n        /* \"#utility.yul\":1607:1640   */\n      tag_74\n        /* \"#utility.yul\":1634:1639   */\n      dup2\n        /* \"#utility.yul\":1607:1640   */\n      tag_38\n      jump\t// in\n    tag_74:\n        /* \"#utility.yul\":1507:1646   */\n      swap3\n      swap2\n      pop\n      pop\n      jump\t// out\n        /* \"#utility.yul\":1652:1778   */\n    tag_40:\n        /* \"#utility.yul\":1689:1696   */\n      0x00\n        /* \"#utility.yul\":1729:1771   */\n      0xffffffffffffffffffffffffffffffffffffffff\n        /* \"#utility.yul\":1722:1727   */\n      dup3\n        /* \"#utility.yul\":1718:1772   */\n      and\n        /* \"#utility.yul\":1707:1772   */\n      swap1\n      pop\n        /* \"#utility.yul\":1652:1778   */\n      swap2\n      swap1\n      pop\n      jump\t// out\n        /* \"#utility.yul\":1784:1880   */\n    tag_41:\n        /* \"#utility.yul\":1821:1828   */\n      0x00\n        /* \"#utility.yul\":1850:1874   */\n      tag_77\n        /* \"#utility.yul\":1868:1873   */\n      dup3\n        /* \"#utility.yul\":1850:1874   */\n      tag_40\n      jump\t// in\n    tag_77:\n        /* \"#utility.yul\":1839:1874   */\n      swap1\n      pop\n        /* \"#utility.yul\":1784:1880   */\n      swap2\n      swap1\n      pop\n      jump\t// out\n        /* \"#utility.yul\":1886:2008   */\n    tag_42:\n        /* \"#utility.yul\":1959:1983   */\n      tag_79\n        /* \"#utility.yul\":1977:1982   */\n      dup2\n        /* \"#utility.yul\":1959:1983   */\n      tag_41\n      jump\t// in\n    tag_79:\n        /* \"#utility.yul\":1952:1957   */\n      dup2\n        /* \"#utility.yul\":1949:1984   */\n      eq\n        /* \"#utility.yul\":1939:2002   */\n      tag_80\n      jumpi\n        /* \"#utility.yul\":1998:1999   */\n      0x00\n        /* \"#utility.yul\":1995:1996   */\n      0x00\n        /* \"#utility.yul\":1988:2000   */\n      revert\n        /* \"#utility.yul\":1939:2002   */\n    tag_80:\n        /* \"#utility.yul\":1886:2008   */\n      pop\n      jump\t// out\n        /* \"#utility.yul\":2014:2153   */\n    tag_43:\n        /* \"#utility.yul\":2060:2065   */\n      0x00\n        /* \"#utility.yul\":2098:2104   */\n      dup2\n        /* \"#utility.yul\":2085:2105   */\n      calldataload\n        /* \"#utility.yul\":2076:2105   */\n      swap1\n      pop\n        /* \"#utility.yul\":2114:2147   */\n      tag_82\n        /* \"#utility.yul\":2141:2146   */\n      dup2\n        /* \"#utility.yul\":2114:2147   */\n      tag_42\n      jump\t// in\n    tag_82:\n        /* \"#utility.yul\":2014:2153   */\n      swap3\n      swap2\n      pop\n      pop\n      jump\t// out\n        /* \"#utility.yul\":2159:2274   */\n    tag_44:\n        /* \"#utility.yul\":2248:2249   */\n      0x04\n        /* \"#utility.yul\":2241:2246   */\n      dup2\n        /* \"#utility.yul\":2238:2250   */\n      lt\n        /* \"#utility.yul\":2228:2268   */\n      tag_84\n      jumpi\n        /* \"#utility.yul\":2264:2265   */\n      0x00\n        /* \"#utility.yul\":2261:2262   */\n      0x00\n        /* \"#utility.yul\":2254:2266   */\n      revert\n        /* \"#utility.yul\":2228:2268   */\n    tag_84:\n        /* \"#utility.yul\":2159:2274   */\n      pop\n      jump\t// out\n        /* \"#utility.yul\":2280:2451   */\n    tag_45:\n        /* \"#utility.yul\":2342:2347   */\n      0x00\n        /* \"#utility.yul\":2380:2386   */\n      dup2\n        /* \"#utility.yul\":2367:2387   */\n      calldataload\n        /* \"#utility.yul\":2358:2387   */\n      swap1\n      pop\n        /* \"#utility.yul\":2396:2445   */\n      tag_86\n        /* \"#utility.yul\":2439:2444   */\n      dup2\n        /* \"#utility.yul\":2396:2445   */\n      tag_44\n      jump\t// in\n    tag_86:\n        /* \"#utility.yul\":2280:2451   */\n      swap3\n      swap2\n      pop\n      pop\n      jump\t// out\n        /* \"#utility.yul\":2501:3757   */\n    tag_46:\n        /* \"#utility.yul\":2577:2582   */\n      0x00\n        /* \"#utility.yul\":2621:2625   */\n      0xc0\n        /* \"#utility.yul\":2609:2618   */\n      dup3\n        /* \"#utility.yul\":2604:2607   */\n      dup5\n        /* \"#utility.yul\":2600:2619   */\n      sub\n        /* \"#utility.yul\":2596:2626   */\n      slt\n        /* \"#utility.yul\":2593:2710   */\n      iszero\n      tag_88\n      jumpi\n        /* \"#utility.yul\":2629:2708   */\n      tag_89\n      tag_31\n      jump\t// in\n    tag_89:\n        /* \"#utility.yul\":2593:2710   */\n    tag_88:\n        /* \"#utility.yul\":2728:2749   */\n      tag_90\n        /* \"#utility.yul\":2744:2748   */\n      0xc0\n        /* \"#utility.yul\":2728:2749   */\n      tag_35\n      jump\t// in\n    tag_90:\n        /* \"#utility.yul\":2719:2749   */\n      swap1\n      pop\n        /* \"#utility.yul\":2806:2807   */\n      0x00\n        /* \"#utility.yul\":2846:2895   */\n      tag_91\n        /* \"#utility.yul\":2891:2894   */\n      dup5\n        /* \"#utility.yul\":2882:2888   */\n      dup3\n        /* \"#utility.yul\":2871:2880   */\n      dup6\n        /* \"#utility.yul\":2867:2889   */\n      add\n        /* \"#utility.yul\":2846:2895   */\n      tag_39\n      jump\t// in\n    tag_91:\n        /* \"#utility.yul\":2839:2843   */\n      0x00\n        /* \"#utility.yul\":2832:2837   */\n      dup4\n        /* \"#utility.yul\":2828:2844   */\n      add\n        /* \"#utility.yul\":2821:2896   */\n      mstore\n        /* \"#utility.yul\":2759:2907   */\n      pop\n        /* \"#utility.yul\":2971:2973   */\n      0x20\n        /* \"#utility.yul\":3012:3061   */\n      tag_92\n        /* \"#utility.yul\":3057:3060   */\n      dup5\n        /* \"#utility.yul\":3048:3054   */\n      dup3\n        /* \"#utility.yul\":3037:3046   */\n      dup6\n        /* \"#utility.yul\":3033:3055   */\n      add\n        /* \"#utility.yul\":3012:3061   */\n      tag_43\n      jump\t// in\n    tag_92:\n        /* \"#utility.yul\":3005:3009   */\n      0x20\n        /* \"#utility.yul\":2998:3003   */\n      dup4\n        /* \"#utility.yul\":2994:3010   */\n      add\n        /* \"#utility.yul\":2987:3062   */\n      mstore\n        /* \"#utility.yul\":2917:3073   */\n      pop\n        /* \"#utility.yul\":3139:3141   */\n      0x40\n        /* \"#utility.yul\":3180:3229   */\n      tag_93\n        /* \"#utility.yul\":3225:3228   */\n      dup5\n        /* \"#utility.yul\":3216:3222   */\n      dup3\n        /* \"#utility.yul\":3205:3214   */\n      dup6\n        /* \"#utility.yul\":3201:3223   */\n      add\n        /* \"#utility.yul\":3180:3229   */\n      tag_43\n      jump\t// in\n    tag_93:\n        /* \"#utility.yul\":3173:3177   */\n      0x40\n        /* \"#utility.yul\":3166:3171   */\n      dup4\n        /* \"#utility.yul\":3162:3178   */\n      add\n        /* \"#utility.yul\":3155:3230   */\n      mstore\n        /* \"#utility.yul\":3083:3241   */\n      pop\n        /* \"#utility.yul\":3302:3304   */\n      0x60\n        /* \"#utility.yul\":3343:3392   */\n      tag_94\n        /* \"#utility.yul\":3388:3391   */\n      dup5\n        /* \"#utility.yul\":3379:3385   */\n      dup3\n        /* \"#utility.yul\":3368:3377   */\n      dup6\n        /* \"#utility.yul\":3364:3386   */\n      add\n        /* \"#utility.yul\":3343:3392   */\n      tag_39\n      jump\t// in\n    tag_94:\n        /* \"#utility.yul\":3336:3340   */\n      0x60\n        /* \"#utility.yul\":3329:3334   */\n      dup4\n        /* \"#utility.yul\":3325:3341   */\n      add\n        /* \"#utility.yul\":3318:3393   */\n      mstore\n        /* \"#utility.yul\":3251:3404   */\n      pop\n        /* \"#utility.yul\":3467:3470   */\n      0x80\n        /* \"#utility.yul\":3509:3558   */\n      tag_95\n        /* \"#utility.yul\":3554:3557   */\n      dup5\n        /* \"#utility.yul\":3545:3551   */\n      dup3\n        /* \"#utility.yul\":3534:3543   */\n      dup6\n        /* \"#utility.yul\":3530:3552   */\n      add\n        /* \"#utility.yul\":3509:3558   */\n      tag_39\n      jump\t// in\n    tag_95:\n        /* \"#utility.yul\":3502:3506   */\n      0x80\n        /* \"#utility.yul\":3495:3500   */\n      dup4\n        /* \"#utility.yul\":3491:3507   */\n      add\n        /* \"#utility.yul\":3484:3559   */\n      mstore\n        /* \"#utility.yul\":3414:3570   */\n      pop\n        /* \"#utility.yul\":3631:3634   */\n      0xa0\n        /* \"#utility.yul\":3673:3738   */\n      tag_96\n        /* \"#utility.yul\":3734:3737   */\n      dup5\n        /* \"#utility.yul\":3725:3731   */\n      dup3\n        /* \"#utility.yul\":3714:3723   */\n      dup6\n        /* \"#utility.yul\":3710:3732   */\n      add\n        /* \"#utility.yul\":3673:3738   */\n      tag_45\n      jump\t// in\n    tag_96:\n        /* \"#utility.yul\":3666:3670   */\n      0xa0\n        /* \"#utility.yul\":3659:3664   */\n      dup4\n        /* \"#utility.yul\":3655:3671   */\n      add\n        /* \"#utility.yul\":3648:3739   */\n      mstore\n        /* \"#utility.yul\":3580:3750   */\n      pop\n        /* \"#utility.yul\":2501:3757   */\n      swap3\n      swap2\n      pop\n      pop\n      jump\t// out\n        /* \"#utility.yul\":3763:4147   */\n    tag_7:\n        /* \"#utility.yul\":3849:3855   */\n      0x00\n        /* \"#utility.yul\":3898:3901   */\n      0xc0\n        /* \"#utility.yul\":3886:3895   */\n      dup3\n        /* \"#utility.yul\":3877:3884   */\n      dup5\n        /* \"#utility.yul\":3873:3896   */\n      sub\n        /* \"#utility.yul\":3869:3902   */\n      slt\n        /* \"#utility.yul\":3866:3986   */\n      iszero\n      tag_98\n      jumpi\n        /* \"#utility.yul\":3905:3984   */\n      tag_99\n      tag_29\n      jump\t// in\n    tag_99:\n        /* \"#utility.yul\":3866:3986   */\n    tag_98:\n        /* \"#utility.yul\":4025:4026   */\n      0x00\n        /* \"#utility.yul\":4050:4130   */\n      tag_100\n        /* \"#utility.yul\":4122:4129   */\n      dup5\n        /* \"#utility.yul\":4113:4119   */\n      dup3\n        /* \"#utility.yul\":4102:4111   */\n      dup6\n        /* \"#utility.yul\":4098:4120   */\n      add\n        /* \"#utility.yul\":4050:4130   */\n      tag_46\n      jump\t// in\n    tag_100:\n        /* \"#utility.yul\":4040:4130   */\n      swap2\n      pop\n        /* \"#utility.yul\":3996:4140   */\n      pop\n        /* \"#utility.yul\":3763:4147   */\n      swap3\n      swap2\n      pop\n      pop\n      jump\t// out\n        /* \"#utility.yul\":4153:4482   */\n    tag_11:\n        /* \"#utility.yul\":4212:4218   */\n      0x00\n        /* \"#utility.yul\":4261:4263   */\n      0x20\n        /* \"#utility.yul\":4249:4258   */\n      dup3\n        /* \"#utility.yul\":4240:4247   */\n      dup5\n        /* \"#utility.yul\":4236:4259   */\n      sub\n        /* \"#utility.yul\":4232:4264   */\n      slt\n        /* \"#utility.yul\":4229:4348   */\n      iszero\n      tag_102\n      jumpi\n        /* \"#utility.yul\":4267:4346   */\n      tag_103\n      tag_29\n      jump\t// in\n    tag_103:\n        /* \"#utility.yul\":4229:4348   */\n    tag_102:\n        /* \"#utility.yul\":4387:4388   */\n      0x00\n        /* \"#utility.yul\":4412:4465   */\n      tag_104\n        /* \"#utility.yul\":4457:4464   */\n      dup5\n        /* \"#utility.yul\":4448:4454   */\n      dup3\n        /* \"#utility.yul\":4437:4446   */\n      dup6\n        /* \"#utility.yul\":4433:4455   */\n      add\n        /* \"#utility.yul\":4412:4465   */\n      tag_39\n      jump\t// in\n    tag_104:\n        /* \"#utility.yul\":4402:4465   */\n      swap2\n      pop\n        /* \"#utility.yul\":4358:4475   */\n      pop\n        /* \"#utility.yul\":4153:4482   */\n      swap3\n      swap2\n      pop\n      pop\n      jump\t// out\n        /* \"#utility.yul\":4488:4596   */\n    tag_47:\n        /* \"#utility.yul\":4565:4589   */\n      tag_106\n        /* \"#utility.yul\":4583:4588   */\n      dup2\n        /* \"#utility.yul\":4565:4589   */\n      tag_37\n      jump\t// in\n    tag_106:\n        /* \"#utility.yul\":4560:4563   */\n      dup3\n        /* \"#utility.yul\":4553:4590   */\n      mstore\n        /* \"#utility.yul\":4488:4596   */\n      pop\n      pop\n      jump\t// out\n        /* \"#utility.yul\":4602:4710   */\n    tag_48:\n        /* \"#utility.yul\":4679:4703   */\n      tag_108\n        /* \"#utility.yul\":4697:4702   */\n      dup2\n        /* \"#utility.yul\":4679:4703   */\n      tag_41\n      jump\t// in\n    tag_108:\n        /* \"#utility.yul\":4674:4677   */\n      dup3\n        /* \"#utility.yul\":4667:4704   */\n      mstore\n        /* \"#utility.yul\":4602:4710   */\n      pop\n      pop\n      jump\t// out\n        /* \"#utility.yul\":4716:4896   */\n    tag_18:\n        /* \"#utility.yul\":4764:4841   */\n      0x4e487b7100000000000000000000000000000000000000000000000000000000\n        /* \"#utility.yul\":4761:4762   */\n      0x00\n        /* \"#utility.yul\":4754:4842   */\n      mstore\n        /* \"#utility.yul\":4861:4865   */\n      0x21\n        /* \"#utility.yul\":4858:4859   */\n      0x04\n        /* \"#utility.yul\":4851:4866   */\n      mstore\n        /* \"#utility.yul\":4885:4889   */\n      0x24\n        /* \"#utility.yul\":4882:4883   */\n      0x00\n        /* \"#utility.yul\":4875:4890   */\n      revert\n        /* \"#utility.yul\":4902:5023   */\n    tag_49:\n        /* \"#utility.yul\":4991:4992   */\n      0x04\n        /* \"#utility.yul\":4984:4989   */\n      dup2\n        /* \"#utility.yul\":4981:4993   */\n      lt\n        /* \"#utility.yul\":4971:5017   */\n      tag_111\n      jumpi\n        /* \"#utility.yul\":4997:5015   */\n      tag_112\n      tag_18\n      jump\t// in\n    tag_112:\n        /* \"#utility.yul\":4971:5017   */\n    tag_111:\n        /* \"#utility.yul\":4902:5023   */\n      pop\n      jump\t// out\n        /* \"#utility.yul\":5029:5172   */\n    tag_50:\n        /* \"#utility.yul\":5082:5089   */\n      0x00\n        /* \"#utility.yul\":5111:5116   */\n      dup2\n        /* \"#utility.yul\":5100:5116   */\n      swap1\n      pop\n        /* \"#utility.yul\":5117:5166   */\n      tag_114\n        /* \"#utility.yul\":5160:5165   */\n      dup3\n        /* \"#utility.yul\":5117:5166   */\n      tag_49\n      jump\t// in\n    tag_114:\n        /* \"#utility.yul\":5029:5172   */\n      swap2\n      swap1\n      pop\n      jump\t// out\n        /* \"#utility.yul\":5178:5321   */\n    tag_51:\n        /* \"#utility.yul\":5242:5251   */\n      0x00\n        /* \"#utility.yul\":5275:5315   */\n      tag_116\n        /* \"#utility.yul\":5309:5314   */\n      dup3\n        /* \"#utility.yul\":5275:5315   */\n      tag_50\n      jump\t// in\n    tag_116:\n        /* \"#utility.yul\":5262:5315   */\n      swap1\n      pop\n        /* \"#utility.yul\":5178:5321   */\n      swap2\n      swap1\n      pop\n      jump\t// out\n        /* \"#utility.yul\":5327:5476   */\n    tag_52:\n        /* \"#utility.yul\":5418:5469   */\n      tag_118\n        /* \"#utility.yul\":5463:5468   */\n      dup2\n        /* \"#utility.yul\":5418:5469   */\n      tag_51\n      jump\t// in\n    tag_118:\n        /* \"#utility.yul\":5413:5416   */\n      dup3\n        /* \"#utility.yul\":5406:5470   */\n      mstore\n        /* \"#utility.yul\":5327:5476   */\n      pop\n      pop\n      jump\t// out\n        /* \"#utility.yul\":5566:6805   */\n    tag_53:\n        /* \"#utility.yul\":5717:5721   */\n      0xc0\n        /* \"#utility.yul\":5712:5715   */\n      dup3\n        /* \"#utility.yul\":5708:5722   */\n      add\n        /* \"#utility.yul\":5802:5806   */\n      0x00\n        /* \"#utility.yul\":5795:5800   */\n      dup3\n        /* \"#utility.yul\":5791:5807   */\n      add\n        /* \"#utility.yul\":5785:5808   */\n      mload\n        /* \"#utility.yul\":5821:5884   */\n      tag_120\n        /* \"#utility.yul\":5878:5882   */\n      0x00\n        /* \"#utility.yul\":5873:5876   */\n      dup6\n        /* \"#utility.yul\":5869:5883   */\n      add\n        /* \"#utility.yul\":5855:5867   */\n      dup3\n        /* \"#utility.yul\":5821:5884   */\n      tag_47\n      jump\t// in\n    tag_120:\n        /* \"#utility.yul\":5732:5894   */\n      pop\n        /* \"#utility.yul\":5981:5985   */\n      0x20\n        /* \"#utility.yul\":5974:5979   */\n      dup3\n        /* \"#utility.yul\":5970:5986   */\n      add\n        /* \"#utility.yul\":5964:5987   */\n      mload\n        /* \"#utility.yul\":6000:6063   */\n      tag_121\n        /* \"#utility.yul\":6057:6061   */\n      0x20\n        /* \"#utility.yul\":6052:6055   */\n      dup6\n        /* \"#utility.yul\":6048:6062   */\n      add\n        /* \"#utility.yul\":6034:6046   */\n      dup3\n        /* \"#utility.yul\":6000:6063   */\n      tag_48\n      jump\t// in\n    tag_121:\n        /* \"#utility.yul\":5904:6073   */\n      pop\n        /* \"#utility.yul\":6162:6166   */\n      0x40\n        /* \"#utility.yul\":6155:6160   */\n      dup3\n        /* \"#utility.yul\":6151:6167   */\n      add\n        /* \"#utility.yul\":6145:6168   */\n      mload\n        /* \"#utility.yul\":6181:6244   */\n      tag_122\n        /* \"#utility.yul\":6238:6242   */\n      0x40\n        /* \"#utility.yul\":6233:6236   */\n      dup6\n        /* \"#utility.yul\":6229:6243   */\n      add\n        /* \"#utility.yul\":6215:6227   */\n      dup3\n        /* \"#utility.yul\":6181:6244   */\n      tag_48\n      jump\t// in\n    tag_122:\n        /* \"#utility.yul\":6083:6254   */\n      pop\n        /* \"#utility.yul\":6338:6342   */\n      0x60\n        /* \"#utility.yul\":6331:6336   */\n      dup3\n        /* \"#utility.yul\":6327:6343   */\n      add\n        /* \"#utility.yul\":6321:6344   */\n      mload\n        /* \"#utility.yul\":6357:6420   */\n      tag_123\n        /* \"#utility.yul\":6414:6418   */\n      0x60\n        /* \"#utility.yul\":6409:6412   */\n      dup6\n        /* \"#utility.yul\":6405:6419   */\n      add\n        /* \"#utility.yul\":6391:6403   */\n      dup3\n        /* \"#utility.yul\":6357:6420   */\n      tag_47\n      jump\t// in\n    tag_123:\n        /* \"#utility.yul\":6264:6430   */\n      pop\n        /* \"#utility.yul\":6516:6520   */\n      0x80\n        /* \"#utility.yul\":6509:6514   */\n      dup3\n        /* \"#utility.yul\":6505:6521   */\n      add\n        /* \"#utility.yul\":6499:6522   */\n      mload\n        /* \"#utility.yul\":6535:6598   */\n      tag_124\n        /* \"#utility.yul\":6592:6596   */\n      0x80\n        /* \"#utility.yul\":6587:6590   */\n      dup6\n        /* \"#utility.yul\":6583:6597   */\n      add\n        /* \"#utility.yul\":6569:6581   */\n      dup3\n        /* \"#utility.yul\":6535:6598   */\n      tag_47\n      jump\t// in\n    tag_124:\n        /* \"#utility.yul\":6440:6608   */\n      pop\n        /* \"#utility.yul\":6692:6696   */\n      0xa0\n        /* \"#utility.yul\":6685:6690   */\n      dup3\n        /* \"#utility.yul\":6681:6697   */\n      add\n        /* \"#utility.yul\":6675:6698   */\n      mload\n        /* \"#utility.yul\":6711:6788   */\n      tag_125\n        /* \"#utility.yul\":6782:6786   */\n      0xa0\n        /* \"#utility.yul\":6777:6780   */\n      dup6\n        /* \"#utility.yul\":6773:6787   */\n      add\n        /* \"#utility.yul\":6759:6771   */\n      dup3\n        /* \"#utility.yul\":6711:6788   */\n      tag_52\n      jump\t// in\n    tag_125:\n        /* \"#utility.yul\":6618:6798   */\n      pop\n        /* \"#utility.yul\":5686:6805   */\n      pop\n        /* \"#utility.yul\":5566:6805   */\n      pop\n      pop\n      jump\t// out\n        /* \"#utility.yul\":6811:7142   */\n    tag_14:\n        /* \"#utility.yul\":6958:6962   */\n      0x00\n        /* \"#utility.yul\":6996:6999   */\n      0xc0\n        /* \"#utility.yul\":6985:6994   */\n      dup3\n        /* \"#utility.yul\":6981:7000   */\n      add\n        /* \"#utility.yul\":6973:7000   */\n      swap1\n      pop\n        /* \"#utility.yul\":7010:7135   */\n      tag_127\n        /* \"#utility.yul\":7132:7133   */\n      0x00\n        /* \"#utility.yul\":7121:7130   */\n      dup4\n        /* \"#utility.yul\":7117:7134   */\n      add\n        /* \"#utility.yul\":7108:7114   */\n      dup5\n        /* \"#utility.yul\":7010:7135   */\n      tag_53\n      jump\t// in\n    tag_127:\n        /* \"#utility.yul\":6811:7142   */\n      swap3\n      swap2\n      pop\n      pop\n      jump\t// out\n\n    auxdata: 0xa2646970667358221220f77d8e61f1166bdc566dfb85453f57228539bce18d3ede4fc38a164358584a8964736f6c634300081e0033\n}\n",
				"bytecode": {
					"linkReferences": {},
					"object": "6080604052348015600e575f5ffd5b506106a38061001c5f395ff3fe608060405234801561000f575f5ffd5b5060043610610034575f3560e01c8063775f75cb146100385780638646405e14610054575b5f5ffd5b610052600480360381019061004d91906104f4565b610084565b005b61006e6004803603810190610069919061051f565b610175565b60405161007b9190610654565b60405180910390f35b805f5f835f015181526020019081526020015f205f820151815f01556020820151816001015f6101000a81548173ffffffffffffffffffffffffffffffffffffffff021916908373ffffffffffffffffffffffffffffffffffffffff1602179055506040820151816002015f6101000a81548173ffffffffffffffffffffffffffffffffffffffff021916908373ffffffffffffffffffffffffffffffffffffffff160217905550606082015181600301556080820151816004015560a0820151816005015f6101000a81548160ff0219169083600381111561016a57610169610568565b5b021790555090505050565b61017d6102a0565b5f5f8381526020019081526020015f206040518060c00160405290815f8201548152602001600182015f9054906101000a900473ffffffffffffffffffffffffffffffffffffffff1673ffffffffffffffffffffffffffffffffffffffff1673ffffffffffffffffffffffffffffffffffffffff168152602001600282015f9054906101000a900473ffffffffffffffffffffffffffffffffffffffff1673ffffffffffffffffffffffffffffffffffffffff1673ffffffffffffffffffffffffffffffffffffffff1681526020016003820154815260200160048201548152602001600582015f9054906101000a900460ff16600381111561028357610282610568565b5b600381111561029557610294610568565b5b815250509050919050565b6040518060c001604052805f81526020015f73ffffffffffffffffffffffffffffffffffffffff1681526020015f73ffffffffffffffffffffffffffffffffffffffff1681526020015f81526020015f81526020015f600381111561030857610307610568565b5b81525090565b5f604051905090565b5f5ffd5b5f5ffd5b5f601f19601f8301169050919050565b7f4e487b71000000000000000000000000000000000000000000000000000000005f52604160045260245ffd5b6103658261031f565b810181811067ffffffffffffffff821117156103845761038361032f565b5b80604052505050565b5f61039661030e565b90506103a2828261035c565b919050565b5f819050919050565b6103b9816103a7565b81146103c3575f5ffd5b50565b5f813590506103d4816103b0565b92915050565b5f73ffffffffffffffffffffffffffffffffffffffff82169050919050565b5f610403826103da565b9050919050565b610413816103f9565b811461041d575f5ffd5b50565b5f8135905061042e8161040a565b92915050565b60048110610440575f5ffd5b50565b5f8135905061045181610434565b92915050565b5f60c0828403121561046c5761046b61031b565b5b61047660c061038d565b90505f610485848285016103c6565b5f83015250602061049884828501610420565b60208301525060406104ac84828501610420565b60408301525060606104c0848285016103c6565b60608301525060806104d4848285016103c6565b60808301525060a06104e884828501610443565b60a08301525092915050565b5f60c0828403121561050957610508610317565b5b5f61051684828501610457565b91505092915050565b5f6020828403121561053457610533610317565b5b5f610541848285016103c6565b91505092915050565b610553816103a7565b82525050565b610562816103f9565b82525050565b7f4e487b71000000000000000000000000000000000000000000000000000000005f52602160045260245ffd5b600481106105a6576105a5610568565b5b50565b5f8190506105b682610595565b919050565b5f6105c5826105a9565b9050919050565b6105d5816105bb565b82525050565b60c082015f8201516105ef5f85018261054a565b5060208201516106026020850182610559565b5060408201516106156040850182610559565b506060820151610628606085018261054a565b50608082015161063b608085018261054a565b5060a082015161064e60a08501826105cc565b50505050565b5f60c0820190506106675f8301846105db565b9291505056fea2646970667358221220f77d8e61f1166bdc566dfb85453f57228539bce18d3ede4fc38a164358584a8964736f6c634300081e0033",
					"opcodes": "PUSH1 0x80 PUSH1 0x40 MSTORE CALLVALUE DUP1 ISZERO PUSH1 0xE JUMPI PUSH0 PUSH0 REVERT JUMPDEST POP PUSH2 0x6A3 DUP1 PUSH2 0x1C PUSH0 CODECOPY PUSH0 RETURN INVALID PUSH1 0x80 PUSH1 0x40 MSTORE CALLVALUE DUP1 ISZERO PUSH2 0xF JUMPI PUSH0 PUSH0 REVERT JUMPDEST POP PUSH1 0x4 CALLDATASIZE LT PUSH2 0x34 JUMPI PUSH0 CALLDATALOAD PUSH1 0xE0 SHR DUP1 PUSH4 0x775F75CB EQ PUSH2 0x38 JUMPI DUP1 PUSH4 0x8646405E EQ PUSH2 0x54 JUMPI JUMPDEST PUSH0 PUSH0 REVERT JUMPDEST PUSH2 0x52 PUSH1 0x4 DUP1 CALLDATASIZE SUB DUP2 ADD SWAP1 PUSH2 0x4D SWAP2 SWAP1 PUSH2 0x4F4 JUMP JUMPDEST PUSH2 0x84 JUMP JUMPDEST STOP JUMPDEST PUSH2 0x6E PUSH1 0x4 DUP1 CALLDATASIZE SUB DUP2 ADD SWAP1 PUSH2 0x69 SWAP2 SWAP1 PUSH2 0x51F JUMP JUMPDEST PUSH2 0x175 JUMP JUMPDEST PUSH1 0x40 MLOAD PUSH2 0x7B SWAP2 SWAP1 PUSH2 0x654 JUMP JUMPDEST PUSH1 0x40 MLOAD DUP1 SWAP2 SUB SWAP1 RETURN JUMPDEST DUP1 PUSH0 PUSH0 DUP4 PUSH0 ADD MLOAD DUP2 MSTORE PUSH1 0x20 ADD SWAP1 DUP2 MSTORE PUSH1 0x20 ADD PUSH0 KECCAK256 PUSH0 DUP3 ADD MLOAD DUP2 PUSH0 ADD SSTORE PUSH1 0x20 DUP3 ADD MLOAD DUP2 PUSH1 0x1 ADD PUSH0 PUSH2 0x100 EXP DUP2 SLOAD DUP2 PUSH20 0xFFFFFFFFFFFFFFFFFFFFFFFFFFFFFFFFFFFFFFFF MUL NOT AND SWAP1 DUP4 PUSH20 0xFFFFFFFFFFFFFFFFFFFFFFFFFFFFFFFFFFFFFFFF AND MUL OR SWAP1 SSTORE POP PUSH1 0x40 DUP3 ADD MLOAD DUP2 PUSH1 0x2 ADD PUSH0 PUSH2 0x100 EXP DUP2 SLOAD DUP2 PUSH20 0xFFFFFFFFFFFFFFFFFFFFFFFFFFFFFFFFFFFFFFFF MUL NOT AND SWAP1 DUP4 PUSH20 0xFFFFFFFFFFFFFFFFFFFFFFFFFFFFFFFFFFFFFFFF AND MUL OR SWAP1 SSTORE POP PUSH1 0x60 DUP3 ADD MLOAD DUP2 PUSH1 0x3 ADD SSTORE PUSH1 0x80 DUP3 ADD MLOAD DUP2 PUSH1 0x4 ADD SSTORE PUSH1 0xA0 DUP3 ADD MLOAD DUP2 PUSH1 0x5 ADD PUSH0 PUSH2 0x100 EXP DUP2 SLOAD DUP2 PUSH1 0xFF MUL NOT AND SWAP1 DUP4 PUSH1 0x3 DUP2 GT ISZERO PUSH2 0x16A JUMPI PUSH2 0x169 PUSH2 0x568 JUMP JUMPDEST JUMPDEST MUL OR SWAP1 SSTORE POP SWAP1 POP POP POP JUMP JUMPDEST PUSH2 0x17D PUSH2 0x2A0 JUMP JUMPDEST PUSH0 PUSH0 DUP4 DUP2 MSTORE PUSH1 0x20 ADD SWAP1 DUP2 MSTORE PUSH1 0x20 ADD PUSH0 KECCAK256 PUSH1 0x40 MLOAD DUP1 PUSH1 0xC0 ADD PUSH1 0x40 MSTORE SWAP1 DUP2 PUSH0 DUP3 ADD SLOAD DUP2 MSTORE PUSH1 0x20 ADD PUSH1 0x1 DUP3 ADD PUSH0 SWAP1 SLOAD SWAP1 PUSH2 0x100 EXP SWAP1 DIV PUSH20 0xFFFFFFFFFFFFFFFFFFFFFFFFFFFFFFFFFFFFFFFF AND PUSH20 0xFFFFFFFFFFFFFFFFFFFFFFFFFFFFFFFFFFFFFFFF AND PUSH20 0xFFFFFFFFFFFFFFFFFFFFFFFFFFFFFFFFFFFFFFFF AND DUP2 MSTORE PUSH1 0x20 ADD PUSH1 0x2 DUP3 ADD PUSH0 SWAP1 SLOAD SWAP1 PUSH2 0x100 EXP SWAP1 DIV PUSH20 0xFFFFFFFFFFFFFFFFFFFFFFFFFFFFFFFFFFFFFFFF AND PUSH20 0xFFFFFFFFFFFFFFFFFFFFFFFFFFFFFFFFFFFFFFFF AND PUSH20 0xFFFFFFFFFFFFFFFFFFFFFFFFFFFFFFFFFFFFFFFF AND DUP2 MSTORE PUSH1 0x20 ADD PUSH1 0x3 DUP3 ADD SLOAD DUP2 MSTORE PUSH1 0x20 ADD PUSH1 0x4 DUP3 ADD SLOAD DUP2 MSTORE PUSH1 0x20 ADD PUSH1 0x5 DUP3 ADD PUSH0 SWAP1 SLOAD SWAP1 PUSH2 0x100 EXP SWAP1 DIV PUSH1 0xFF AND PUSH1 0x3 DUP2 GT ISZERO PUSH2 0x283 JUMPI PUSH2 0x282 PUSH2 0x568 JUMP JUMPDEST JUMPDEST PUSH1 0x3 DUP2 GT ISZERO PUSH2 0x295 JUMPI PUSH2 0x294 PUSH2 0x568 JUMP JUMPDEST JUMPDEST DUP2 MSTORE POP POP SWAP1 POP SWAP2 SWAP1 POP JUMP JUMPDEST PUSH1 0x40 MLOAD DUP1 PUSH1 0xC0 ADD PUSH1 0x40 MSTORE DUP1 PUSH0 DUP2 MSTORE PUSH1 0x20 ADD PUSH0 PUSH20 0xFFFFFFFFFFFFFFFFFFFFFFFFFFFFFFFFFFFFFFFF AND DUP2 MSTORE PUSH1 0x20 ADD PUSH0 PUSH20 0xFFFFFFFFFFFFFFFFFFFFFFFFFFFFFFFFFFFFFFFF AND DUP2 MSTORE PUSH1 0x20 ADD PUSH0 DUP2 MSTORE PUSH1 0x20 ADD PUSH0 DUP2 MSTORE PUSH1 0x20 ADD PUSH0 PUSH1 0x3 DUP2 GT ISZERO PUSH2 0x308 JUMPI PUSH2 0x307 PUSH2 0x568 JUMP JUMPDEST JUMPDEST DUP2 MSTORE POP SWAP1 JUMP JUMPDEST PUSH0 PUSH1 0x40 MLOAD SWAP1 POP SWAP1 JUMP JUMPDEST PUSH0 PUSH0 REVERT JUMPDEST PUSH0 PUSH0 REVERT JUMPDEST PUSH0 PUSH1 0x1F NOT PUSH1 0x1F DUP4 ADD AND SWAP1 POP SWAP2 SWAP1 POP JUMP JUMPDEST PUSH32 0x4E487B7100000000000000000000000000000000000000000000000000000000 PUSH0 MSTORE PUSH1 0x41 PUSH1 0x4 MSTORE PUSH1 0x24 PUSH0 REVERT JUMPDEST PUSH2 0x365 DUP3 PUSH2 0x31F JUMP JUMPDEST DUP2 ADD DUP2 DUP2 LT PUSH8 0xFFFFFFFFFFFFFFFF DUP3 GT OR ISZERO PUSH2 0x384 JUMPI PUSH2 0x383 PUSH2 0x32F JUMP JUMPDEST JUMPDEST DUP1 PUSH1 0x40 MSTORE POP POP POP JUMP JUMPDEST PUSH0 PUSH2 0x396 PUSH2 0x30E JUMP JUMPDEST SWAP1 POP PUSH2 0x3A2 DUP3 DUP3 PUSH2 0x35C JUMP JUMPDEST SWAP2 SWAP1 POP JUMP JUMPDEST PUSH0 DUP2 SWAP1 POP SWAP2 SWAP1 POP JUMP JUMPDEST PUSH2 0x3B9 DUP2 PUSH2 0x3A7 JUMP JUMPDEST DUP2 EQ PUSH2 0x3C3 JUMPI PUSH0 PUSH0 REVERT JUMPDEST POP JUMP JUMPDEST PUSH0 DUP2 CALLDATALOAD SWAP1 POP PUSH2 0x3D4 DUP2 PUSH2 0x3B0 JUMP JUMPDEST SWAP3 SWAP2 POP POP JUMP JUMPDEST PUSH0 PUSH20 0xFFFFFFFFFFFFFFFFFFFFFFFFFFFFFFFFFFFFFFFF DUP3 AND SWAP1 POP SWAP2 SWAP1 POP JUMP JUMPDEST PUSH0 PUSH2 0x403 DUP3 PUSH2 0x3DA JUMP JUMPDEST SWAP1 POP SWAP2 SWAP1 POP JUMP JUMPDEST PUSH2 0x413 DUP2 PUSH2 0x3F9 JUMP JUMPDEST DUP2 EQ PUSH2 0x41D JUMPI PUSH0 PUSH0 REVERT JUMPDEST POP JUMP JUMPDEST PUSH0 DUP2 CALLDATALOAD SWAP1 POP PUSH2 0x42E DUP2 PUSH2 0x40A JUMP JUMPDEST SWAP3 SWAP2 POP POP JUMP JUMPDEST PUSH1 0x4 DUP2 LT PUSH2 0x440 JUMPI PUSH0 PUSH0 REVERT JUMPDEST POP JUMP JUMPDEST PUSH0 DUP2 CALLDATALOAD SWAP1 POP PUSH2 0x451 DUP2 PUSH2 0x434 JUMP JUMPDEST SWAP3 SWAP2 POP POP JUMP JUMPDEST PUSH0 PUSH1 0xC0 DUP3 DUP5 SUB SLT ISZERO PUSH2 0x46C JUMPI PUSH2 0x46B PUSH2 0x31B JUMP JUMPDEST JUMPDEST PUSH2 0x476 PUSH1 0xC0 PUSH2 0x38D JUMP JUMPDEST SWAP1 POP PUSH0 PUSH2 0x485 DUP5 DUP3 DUP6 ADD PUSH2 0x3C6 JUMP JUMPDEST PUSH0 DUP4 ADD MSTORE POP PUSH1 0x20 PUSH2 0x498 DUP5 DUP3 DUP6 ADD PUSH2 0x420 JUMP JUMPDEST PUSH1 0x20 DUP4 ADD MSTORE POP PUSH1 0x40 PUSH2 0x4AC DUP5 DUP3 DUP6 ADD PUSH2 0x420 JUMP JUMPDEST PUSH1 0x40 DUP4 ADD MSTORE POP PUSH1 0x60 PUSH2 0x4C0 DUP5 DUP3 DUP6 ADD PUSH2 0x3C6 JUMP JUMPDEST PUSH1 0x60 DUP4 ADD MSTORE POP PUSH1 0x80 PUSH2 0x4D4 DUP5 DUP3 DUP6 ADD PUSH2 0x3C6 JUMP JUMPDEST PUSH1 0x80 DUP4 ADD MSTORE POP PUSH1 0xA0 PUSH2 0x4E8 DUP5 DUP3 DUP6 ADD PUSH2 0x443 JUMP JUMPDEST PUSH1 0xA0 DUP4 ADD MSTORE POP SWAP3 SWAP2 POP POP JUMP JUMPDEST PUSH0 PUSH1 0xC0 DUP3 DUP5 SUB SLT ISZERO PUSH2 0x509 JUMPI PUSH2 0x508 PUSH2 0x317 JUMP JUMPDEST JUMPDEST PUSH0 PUSH2 0x516 DUP5 DUP3 DUP6 ADD PUSH2 0x457 JUMP JUMPDEST SWAP2 POP POP SWAP3 SWAP2 POP POP JUMP JUMPDEST PUSH0 PUSH1 0x20 DUP3 DUP5 SUB SLT ISZERO PUSH2 0x534 JUMPI PUSH2 0x533 PUSH2 0x317 JUMP JUMPDEST JUMPDEST PUSH0 PUSH2 0x541 DUP5 DUP3 DUP6 ADD PUSH2 0x3C6 JUMP JUMPDEST SWAP2 POP POP SWAP3 SWAP2 POP POP JUMP JUMPDEST PUSH2 0x553 DUP2 PUSH2 0x3A7 JUMP JUMPDEST DUP3 MSTORE POP POP JUMP JUMPDEST PUSH2 0x562 DUP2 PUSH2 0x3F9 JUMP JUMPDEST DUP3 MSTORE POP POP JUMP JUMPDEST PUSH32 0x4E487B7100000000000000000000000000000000000000000000000000000000 PUSH0 MSTORE PUSH1 0x21 PUSH1 0x4 MSTORE PUSH1 0x24 PUSH0 REVERT JUMPDEST PUSH1 0x4 DUP2 LT PUSH2 0x5A6 JUMPI PUSH2 0x5A5 PUSH2 0x568 JUMP JUMPDEST JUMPDEST POP JUMP JUMPDEST PUSH0 DUP2 SWAP1 POP PUSH2 0x5B6 DUP3 PUSH2 0x595 JUMP JUMPDEST SWAP2 SWAP1 POP JUMP JUMPDEST PUSH0 PUSH2 0x5C5 DUP3 PUSH2 0x5A9 JUMP JUMPDEST SWAP1 POP SWAP2 SWAP1 POP JUMP JUMPDEST PUSH2 0x5D5 DUP2 PUSH2 0x5BB JUMP JUMPDEST DUP3 MSTORE POP POP JUMP JUMPDEST PUSH1 0xC0 DUP3 ADD PUSH0 DUP3 ADD MLOAD PUSH2 0x5EF PUSH0 DUP6 ADD DUP3 PUSH2 0x54A JUMP JUMPDEST POP PUSH1 0x20 DUP3 ADD MLOAD PUSH2 0x602 PUSH1 0x20 DUP6 ADD DUP3 PUSH2 0x559 JUMP JUMPDEST POP PUSH1 0x40 DUP3 ADD MLOAD PUSH2 0x615 PUSH1 0x40 DUP6 ADD DUP3 PUSH2 0x559 JUMP JUMPDEST POP PUSH1 0x60 DUP3 ADD MLOAD PUSH2 0x628 PUSH1 0x60 DUP6 ADD DUP3 PUSH2 0x54A JUMP JUMPDEST POP PUSH1 0x80 DUP3 ADD MLOAD PUSH2 0x63B PUSH1 0x80 DUP6 ADD DUP3 PUSH2 0x54A JUMP JUMPDEST POP PUSH1 0xA0 DUP3 ADD MLOAD PUSH2 0x64E PUSH1 0xA0 DUP6 ADD DUP3 PUSH2 0x5CC JUMP JUMPDEST POP POP POP POP JUMP JUMPDEST PUSH0 PUSH1 0xC0 DUP3 ADD SWAP1 POP PUSH2 0x667 PUSH0 DUP4 ADD DUP5 PUSH2 0x5DB JUMP JUMPDEST SWAP3 SWAP2 POP POP JUMP INVALID LOG2 PUSH5 0x6970667358 0x22 SLT KECCAK256 0xF7 PUSH30 0x8E61F1166BDC566DFB85453F57228539BCE18D3EDE4FC38A164358584A89 PUSH5 0x736F6C6343 STOP ADDMOD 0x1E STOP CALLER "
				},
				"gasEstimates": {
					"creation": {
						"codeDepositCost": "339800",
						"executionCost": "378",
						"totalCost": "340178"
					},
					"external": {
						"getEscrowInfo(uint256)": "infinite",
						"saveEscrowInfo((uint256,address,address,uint256,uint256,uint8))": "infinite"
					}
				},
				"methodIdentifiers": {
					"getEscrowInfo(uint256)": "8646405e",
					"saveEscrowInfo((uint256,address,address,uint256,uint256,uint8))": "775f75cb"
				}
			},
			"storageLayout": {
				"storage": [
					{
						"astId": 253,
						"contract": "src/sample/SimpleEscrow.sol:SimpleEscrowLegacy",
						"label": "_info",
						"offset": 0,
						"slot": "0",
						"type": "t_mapping(t_uint256,t_struct(EscrowInfo)248_storage)"
					}
				],
				"types": {
					"t_address": {
						"encoding": "inplace",
						"label": "address",
						"numberOfBytes": "20"
					},
					"t_enum(EscrowStatus)234": {
						"encoding": "inplace",
						"label": "enum SimpleEscrowLegacy.EscrowStatus",
						"numberOfBytes": "1"
					},
					"t_mapping(t_uint256,t_struct(EscrowInfo)248_storage)": {
						"encoding": "mapping",
						"key": "t_uint256",
						"label": "mapping(uint256 => struct SimpleEscrowLegacy.EscrowInfo)",
						"numberOfBytes": "32",
						"value": "t_struct(EscrowInfo)248_storage"
					},
					"t_struct(EscrowInfo)248_storage": {
						"encoding": "inplace",
						"label": "struct SimpleEscrowLegacy.EscrowInfo",
						"members": [
							{
								"astId": 236,
								"contract": "src/sample/SimpleEscrow.sol:SimpleEscrowLegacy",
								"label": "id",
								"offset": 0,
								"slot": "0",
								"type": "t_uint256"
							},
							{
								"astId": 238,
								"contract": "src/sample/SimpleEscrow.sol:SimpleEscrowLegacy",
								"label": "depositor",
								"offset": 0,
								"slot": "1",
								"type": "t_address"
							},
							{
								"astId": 240,
								"contract": "src/sample/SimpleEscrow.sol:SimpleEscrowLegacy",
								"label": "beneficiary",
								"offset": 0,
								"slot": "2",
								"type": "t_address"
							},
							{
								"astId": 242,
								"contract": "src/sample/SimpleEscrow.sol:SimpleEscrowLegacy",
								"label": "amount",
								"offset": 0,
								"slot": "3",
								"type": "t_uint256"
							},
							{
								"astId": 244,
								"contract": "src/sample/SimpleEscrow.sol:SimpleEscrowLegacy",
								"label": "deadline",
								"offset": 0,
								"slot": "4",
								"type": "t_uint256"
							},
							{
								"astId": 247,
								"contract": "src/sample/SimpleEscrow.sol:SimpleEscrowLegacy",
								"label": "status",
								"offset": 0,
								"slot": "5",
								"type": "t_enum(EscrowStatus)234"
							}
						],
						"numberOfBytes": "192"
					},
					"t_uint256": {
						"encoding": "inplace",
						"label": "uint256",
						"numberOfBytes": "32"
					}
				}
			},
			"userdoc": {
				"kind": "user",
				"methods": {},
				"version": 1
			}
		}
	}
}